:100000005DC100000C94660B0C943B0B0C94100B20
:100010000C94E50A0C94BA0A0C948F0A0C94640AA6
:100020000C94390A7CC100007AC1000078C100003C
:1000300076C1000074C1000072C1000070C10000F0
:100040006EC100006CC100006AC1000068C1000000
:1000500066C1000064C1000062C100000C94EF0999
:100060005EC100005CC100005AC1000058C1000020
:1000700056C1000054C1000052C1000050C1000030
:100080004EC100004CC100004AC1000048C1000040
:100090000C94D70E0C94AD0E42C100000C94910B41
:1000A0003EC100003CC100003AC1000038C1000060
:1000B00036C1000034C1000032C1000030C1000070
:1000C0002EC100002CC100002AC100000C94830E38
:1000D0000C94590E24C100000C942F0E0C94050EA4
:1000E0001EC10000F303F603E503E903ED032D044D
:1000F000FA03FE03040408040C04120416041A0490
:100100002D042004240428046A066F0674067E0663
:100110008806010792069A06A206AC06B606C00635
:10012000CF06D9060107E306ED06F7069007940708
:1001300098079909990999099909990973077707FE
:100140008007840788078C0700002100240027000F
:100150002A002D00300033000101000004010701D6
:100160000A0100002200250028002B002E0031008B
:10017000340002010000050108010B010505050519
:10018000070508080808020202020A0A080804040F
:10019000040401010101010101010303030303033D
:1001A0000303040707070C0C0C0C0C0C0C0C0202CC
:1001B000020206060606060606060B0B0B0B0B0BC9
:1001C0000B0B05050A0A0A0102102020080810205E
:1001D00040102040800201020108040201010204D3
:1001E0000810204080804020100804020180040292
:1001F00001804020100804020108040201010204E9
:100200000810204080010204081020408040800433
:10021000081000000A0B02090C0D0E080703040168
:1002200000000000000000000000000000000000CE
:10023000000000000000000000000000000012119B
:10024000100000000000000000000000000000009E
:100250000000000000000000000000000024504DDD
:10026000544B3232302C313030302A31460D0A00B6
:1002700024504D544B3331342C302C312C302C3114
:100280002C302C302C302C302C302C302C302C308E
:100290002C302C302C302C302C302C302C302A327E
:1002A000380D0A0024504D544B3235312C31313544
:1002B0003230302A31460D0A00001D1211241FBEB3
:1002C000CFEFD1E2DEBFCDBF00E00CBF12E0A0E077
:1002D000B2E0E2E1F6E200E00BBF02C007900D924F
:1002E000A034B107D9F72EE1A0E4B2E001C01D921D
:1002F000A03DB207E1F711E0CEE5D1E000E006C095
:1003000021970109802FFE010E94D712CD35D10718
:1003100080E00807A9F70E943B0F0C94071370CEEA
:10032000FC01918D828D981761F0828DDF01A80FFD
:10033000B11D5D968C91928D9F5F9F73928F90E01F
:1003400008958FEF9FEF0895FC01918D828D98178E
:1003500031F0828DE80FF11D858D90E008958FEFCB
:100360009FEF0895FC01918D228D892F90E0805C94
:100370009F4F821B91098F73992708953FB7F89477
:100380008091D5029091D602A091D702B091D80267
:1003900026B5A89B05C02F3F19F00196A11DB11DE0
:1003A0003FBFBA2FA92F982F8827820F911DA11D1B
:1003B000B11DBC01CD0142E0660F771F881F991F58
:1003C0004A95D1F70895089585ED8093BC008091FA
:1003D000BC0084FDFCCF1092E41C0895409189027A
:1003E000262F30E0240F311D21323105DCF420911D
:1003F000E41C2430C9F4FC0180E090E0861758F436
:10040000309189022191DC01A759BD4FA30FB11D85
:100410002C930196F3CF80918902680F6093890233
:1004200080E0089581E0089582E00895E091DB0284
:10043000F091DC02309729F01092E61C1092E51C36
:1004400019940895CF93DF93AC01E091D902F09114
:10045000DA023097F1F09091E81C8091E71C981730
:10046000C0F090E0292F30E02617370754F4D90167
:10047000A75BBD4FEA01C20FD31F88818C939F5F9A
:10048000F1CF1092E81C6093E71CCB01DF91CF9174
:100490001994DF91CF9108950895E091E81C80911F
:1004A000E71CE81730F4F0E0E75BFD4F808190E057
:1004B00008958FEF9FEF08959091E81C8091E71CBD
:1004C000981750F4E92FF0E0E75BFD4F208130E012
:1004D0009F5F9093E81C02C02FEF3FEFC901089582
:1004E0008091E71C90E02091E81C821B91090895FF
:1004F000CF93DF931F921F92CDB7DEB7CB01642F4E
:1005000049835A836BDF4981842F5A81952F0F903D
:100510000F90DF91CF910895CF93DF931F92CDB7C6
:10052000DEB7698361E0CE01019658DF81E090E09B
:100530000F90DF91CF910895FC01A089B1898C9132
:10054000A689B78982FD0FC09C91818D8F5F8F73C3
:10055000228D821749F0218DDF01A20FB11D5D961A
:100560009C93818F08958C910895CF93DF93EC0134
:10057000E881F9810284F385E02D1995EA89FB89E8
:1005800080818F7E8083EA89FB898081877F808359
:10059000EA89FB8980818F778083EA89FB89808162
:1005A0008F7D80838A8D898FDF91CF910895CF923F
:1005B000DF92EF92FF921F93CF93DF93EC016A01DA
:1005C0007B01122FE889F98982E080834115514E21
:1005D00061057105B1F060E079E08DE390E0A7017D
:1005E00096010E94B512DA01C9010197A109B1096A
:1005F000B695A79597958795AC01411580E1580769
:10060000A8F0E889F989108260E874E88EE190E04A
:10061000A70196010E94B512BA01A90141505109E2
:10062000610971097695679557954795EC85FD8524
:100630005083EE85FF854083188EEC89FD891083F9
:10064000EA89FB89808180618083EA89FB898081D6
:1006500088608083EA89FB89808180688083EA8959
:10066000FB8980818F7D8083DF91CF911F91FF90E7
:10067000EF90DF90CF900895FC01848DDF01A80FEB
:10068000B11DA35ABF4F2C91848D90E001968F73BA
:100690009927848FA689B7892C93A089B1898C91D9
:1006A00080648C93938D848D981306C00288F3899F
:1006B000E02D80818F7D80830895EF92FF920F93CC
:1006C0001F93CF93DF93EC0181E0888F9B8D8C8DFE
:1006D000981305C0E889F989808185FD23C0F62E2D
:1006E0000B8D10E00F5F1F4F0F731127E02E8C8DC5
:1006F000E8120BC00FB607FCFACFE889F9898081B0
:1007000085FFF5CFCE01B8DFF2CF8B8DFE01E80F6C
:10071000F11DE35AFF4FF0820B8FEA89FB8980813C
:10072000806207C0EE89FF896083E889F98980814A
:100730008064808381E090E0DF91CF911F910F91E1
:10074000FF90EF900895CF93DF93EC01888D88237D
:10075000C1F0EA89FB89808185FD05C0A889B98936
:100760008C9186FD0EC00FB607FCF5CF808185FF0A
:10077000F2CFA889B9898C9185FFEDCFCE017CDFBE
:10078000E8CFDF91CF910895362F90E0FC01EE5E27
:10079000FD4F4491FC01E953FE4F2491FC01E458C4
:1007A000FE4F9491992309F46BC0442309F455C07A
:1007B00050E0FA013197E231F10508F04EC0882788
:1007C000EE58FF4F8F4F0C94D712809180008F7797
:1007D00007C0809180008F7D03C080918000877F5B
:1007E000809380003AC084B58F7702C084B58F7D36
:1007F00084BD33C08091B0008F7703C08091B0007A
:100800008F7D8093B00029C0809190008F7707C0C2
:10081000809190008F7D03C080919000877F8093AE
:1008200090001BC08091A0008F7707C08091A0002E
:100830008F7D03C08091A000877F8093A0000DC0B2
:10084000809120018F7707C0809120018F7D03C0A8
:1008500080912001877F80932001E92FF0E0EE0F47
:10086000FF1FEE59FE4FA591B4918FB7F894EC910C
:10087000311103C020952E2301C02E2B2C938FBF46
:10088000089581E08093FC0261E080E37DCF81E008
:100890008093EC0261E080E377CFCF92DF92EF921A
:1008A000FF920F931F93CF93DF93C09140028091EB
:1008B0000002833009F4D6C050F4813009F4E8C056
:1008C000823009F0E8C0D0E0C352DD4FD5C084309B
:1008D00009F4ACC0853009F0DEC08C2F82958F7092
:1008E00091F58091E1020091E20210E0182BC09096
:1008F0004102D0904202E601E12C98E0F92EAE01CF
:100900004C195D09209141023091420220583F4F1D
:10091000C217D30708F0CBC02091410230914202A8
:10092000200F311FC217D30708F0C1C0CE01B70195
:100930000E94A212FC01E352F04F608184EC9EE120
:10094000EBDD2196DCCF813091F58091F1020091B1
:10095000F20210E0182BC0904502D0904602E6014A
:10096000E12C88E0F82EAE014C195D09209145027A
:100970003091460220583F4FC217D30708F0D0C02D
:100980002091450230914602200F311FC217D30734
:1009900008F0C6C0CE01B7010E94A212FC01E352CA
:1009A000FC4F608184EC9EE1B7DD2196DCCF823084
:1009B00009F024C1CF70C230D9F4C091DF1BD091AF
:1009C000E01BC038D1050CF0EEC08091DF1B909188
:1009D000E01B80589F4FC817D90708F0E4C0FE01FC
:1009E000EF59F34E608184EC9EE196DD2196E9CFCC
:1009F000C33009F003C1C091DD1BD091DE1BC038AC
:100A0000D1050CF0E6C08091DD1B9091DE1B805873
:100A10009F4FC817D90708F0DCC0FE01EF51F44E14
:100A2000608184EC9EE178DD2196E9CF00E010E062
:100A3000D0E0C8018C0F9D1F813021E0920740F467
:100A4000FC01E352FD4F608184EC9EE165DD04C052
:100A500080E090E00E94010F0F5F1F4F04301105EE
:100A600041F7CCC0D0E0FE01E352FD4F608184EC41
:100A70009EE152DDC252DD4F688184EC9EE1DF9140
:100A8000CF911F910F91FF90EF90DF90CF9044CDC9
:100A900081E090E002C080E090E0DF91CF911F9173
:100AA0000F91FF90EF90DF90CF900C94010F809109
:100AB000410290914202840F951F977090934202D9
:100AC000809341022091430230914402809141027F
:100AD000909142022817390748F080914302909183
:100AE0004402209141023091420209C080914302A8
:100AF000909144022091410230914202985F821B02
:100B0000930B9093DF028093E0029093E102809335
:100B1000E202892B09F472C081E08093EB022EC0BF
:100B20008091450290914602840F951F9770909393
:100B300046028093450220914702309148028091FD
:100B40004502909146022817390718F18091470213
:100B5000909148022091450230914602821B930BEE
:100B60009093EF028093F0029093F1028093F2024F
:100B7000892B09F443C081E08093FB0261E080E3AC
:100B8000DF91CF911F910F91FF90EF90DF90CF9069
:100B9000FBCD80914702909148022091450230910F
:100BA0004602985FDBCF8091DF1B9091E01B80585D
:100BB0009F4F9093E01B8093DF1B8091DF1B9091F0
:100BC000E01B80389105D0F01092E01B1092DF1BE3
:100BD00015C08091DD1B9091DE1B80589F4F909334
:100BE000DE1B8093DD1B8091DD1B9091DE1B803826
:100BF000910520F01092DE1B1092DD1BDF91CF914A
:100C00001F910F91FF90EF90DF90CF900895CF93B9
:100C1000DF9390E0FC01E953FE4F2491FC01E4587E
:100C2000FE4F8491882361F190E0880F991FFC01A9
:100C3000E85BFE4FC591D491FC01EE59FE4FA591A2
:100C4000B491611109C09FB7F894888120958223DF
:100C50008883EC912E230BC0623061F49FB7F89427
:100C60003881822F809583238883EC912E2B2C93BF
:100C70009FBF06C08FB7F894E8812E2B28838FBFC3
:100C8000DF91CF9108951F93CF93DF93182FEB013E
:100C900061E0BDDF209711F460E004C0CF3FD105D3
:100CA00031F461E0812FDF91CF911F916DCDE12F64
:100CB000F0E0EE5EFD4FE4914E2F50E0FA013197E7
:100CC000E231F10508F09DC08827EC57FF4F8F4FA8
:100CD0000C94D71284B5806884BDC7BD97C084B515
:100CE000806284BDC8BD92C080918000806880937E
:100CF0008000D0938900C093880088C080918000D4
:100D0000806280938000D0938B00C0938A007EC065
:100D100080918000886080938000D0938D00C09384
:100D20008C0074C08091B00080688093B000C09344
:100D3000B3006CC08091B00080628093B000C0931B
:100D4000B40064C080919000806880939000D0933C
:100D50009900C09398005AC080919000806280935F
:100D60009000D0939B00C0939A0050C08091900057
:100D7000886080939000D0939D00C0939C0046C0F3
:100D80008091A00080688093A0008091A0008F7B5C
:100D90008093A000D093A900C093A80037C0809191
:100DA000A00080628093A000D093AB00C093AA0003
:100DB0002DC08091A00088608093A000D093AD00EA
:100DC000C093AC0023C080912001806880932001F3
:100DD000D0932901C093280119C08091200180621D
:100DE00080932001D0932B01C0932A010FC08091E2
:100DF0002001886080932001D0932D01C0932C01A5
:100E000005C0C038D1050CF04CCF46CFDF91CF9153
:100E10001F910895BF92CF92DF92EF92FF920F93AE
:100E20001F93CF93DF937C0184EC9EE145DBEC01C3
:100E30008F3F61F4EA94EF2831F482E0809300025E
:100E4000C093400276C21092000273C2182F12950E
:100E50001F70123009F58F709927EA94EF2899F4E2
:100E60008130910529F04CF004973CF485E0C7C02F
:100E700010930002C09340025CC282E080930002A3
:100E8000C093400256C210920002892B09F051C251
:100E900081E08093E11C47C2133009F04DC0EA9411
:100EA000EF2831F482E080930002C093400241C2F7
:100EB000109200029091E71C8091E81C981709F4A9
:100EC00038C284EC9EE1F8DA8C01FE01EF70FF2756
:100ED0003297EE30F10508F02CC28827EA56FF4F12
:100EE0008F4F0C94D712B801772784E003C0B80164
:100EF000772785E0C8DEDD27C352DD4F088312C2A5
:100F0000B80177278EE2F6CFB80177278DE0F2CFD0
:100F1000B80177278CE0EECFB80177278BE0EACFD6
:100F2000B801772788E0E6CFB801772787E0E2CFDE
:100F3000B801772786E0DECF9C012F703327EA9433
:100F4000EF2809F061C026303105A1F13CF52130D0
:100F5000310551F12230310509F050C0B0E11B9F3D
:100F6000C0011124FC01E460DC01A260A352BD4F6A
:100F70002C91E352FD4F2083FC01E560DC01A3606E
:100F8000A352BD4F9C91E352FD4F908393E0909309
:100F90000002182F146010934002CBC12E5031096B
:100FA0002230310568F02AC085E080930002C093AA
:100FB0004002BFC184E080930002C0934002B9C1E7
:100FC000DD27C352DD4F8881813021F41882809360
:100FD000000202C0109200028091EB028111A9C1AF
:100FE0008091FB028111A5C18091EC028111A1C108
:100FF0008091FC02882309F499C19BC182E080930F
:101000000002C093400295C1109200028091E71C3B
:101010004091E81C2A30310509F464C144F42115DB
:10102000310581F02630310509F440C182C12C30F0
:10103000310509F469C10CF45DC12D30310509F4A5
:1010400045C077C111111FC00DED17E1C0E0D0E020
:101050009091E71C8091E81C981761F084EC9EE168
:101060002BDAC115F4E0DF0799F3D8018D938D01D8
:101070002196EECFAE016DED77E18DEE9CE17BD553
:101080008DEE9CE121C0113009F04CC10DED1BE04B
:10109000C0E0D0E09091E71C8091E81C981761F0C7
:1010A00084EC9EE109DAC115B4E0DB0799F3F8019D
:1010B00081938F012196EECFAE016DED7BE087E24B
:1010C0009EE159D587E29EE13EDB2CC1841709F4ED
:1010D00030C184EC9EE1F0D9082FF0E11F9FE001C0
:1010E0001124FE01E660E352FD4F8081FE01E760BE
:1010F000E352FD4F9081FE01E860E352FD4FC08056
:10110000FE01E960E352FD4F8081D12CE12CF12CEE
:10111000FE2CED2CDC2CCC24E92AC82AFE01EA6046
:10112000E352FD4F8081FE01EB60E352FD4FB08042
:10113000FE01EC60E352FD4F9081B82AB92A1111EB
:1011400058C08DEE9CE111DA60E086E11DDBFE0106
:10115000EE60E352FD4F10828091EB0281110DC0D1
:101160008091FB02811109C08091EC02811105C0C0
:101170008091FC02882309F4E6C080E094E0EDED64
:10118000F7E1DF019C011D9221503040E1F780E042
:1011900098E0EDEDFFE0DF019C011D922150304011
:1011A000E1F7109244021092430210924202109210
:1011B0004102FE01E260E352FD4F1082FE01E36056
:1011C000E352FD4F1082FE01E460E352FD4F1082B6
:1011D000FE01E560E352FD4F1082013009F0A2C02C
:1011E00061E086E1D1DA2B2DB701A6018DEE9CE1FD
:1011F0005AC0113009F096C087E29EE1B6D960E08E
:1012000087E1C2DAFE01EE60E352FD4F1082809169
:10121000EB0281110DC08091FB02811109C0809108
:10122000EC02811105C08091FC02882309F48FC073
:1012300080E094E0EDEDFBE0DF019C011D92215088
:101240003040E1F780E098E0EDEDF3E0DF019C0154
:101250001D9221503040E1F710924802109247024F
:101260001092460210924502FE01E260E352FD4FE9
:101270001082FE01E360E352FD4F1082FE01E46044
:10128000E352FD4F1082FE01E560E352FD4F1082F4
:10129000013009F047C061E087E176DA2B2DB70114
:1012A000A60187E29EE183D9CD6026CE90E0841B23
:1012B000910904970CF43DC000E010E07E01FF248A
:1012C000D1E084EC9EE1F8D8F701E00FF11FE35282
:1012D000FD4F8083D09300020F5F1F4F0430110534
:1012E00081F727C0841729F184EC9EE1E5D8982F77
:1012F000997F07C08417E9F084EC9EE1DDD8982F30
:10130000977F911116C00AC0841799F084EC9EE172
:10131000D3D8982F9F7D11F0803359F4DD27C35225
:10132000DD4F888381E08093000203C060E080E3AA
:101330002BDA9091E71C8091E81C981761F084ECFF
:101340009EE1BAD8F6CF60E080E31EDA16CF60E007
:1013500080E31ADA6DCFDF91CF911F910F91FF904B
:10136000EF90DF90CF90BF9008958F929F92AF92B1
:10137000BF92CF92DF92EF92FF926B017C010E94AD
:10138000BE014B015C01C114D104E104F104F1F090
:101390000E94BE01DC01CB0188199909AA09BB0989
:1013A000883E9340A105B10570F321E0C21AD1082F
:1013B000E108F10888EE880E83E0981EA11CB11C9C
:1013C000C114D104E104F10419F7DDCFFF90EF90CF
:1013D000DF90CF90BF90AF909F908F9008951F9215
:1013E0000F920FB60F9211242F933F938F939F93D9
:1013F000AF93BF938091D1029091D202A091D3027A
:10140000B091D4023091D00223E0230F2D3720F485
:101410000196A11DB11D05C026E8230F0296A11D4E
:10142000B11D2093D0028093D1029093D202A09359
:10143000D302B093D4028091D5029091D602A091AC
:10144000D702B091D8020196A11DB11D8093D5029B
:101450009093D602A093D702B093D802BF91AF91D8
:101460009F918F913F912F910F900FBE0F901F90E2
:1014700018951F920F920FB60F9211240BB60F9270
:101480002F933F934F935F936F937F938F939F938C
:10149000AF93BF93EF93FF93E0910F02F09110028F
:1014A0001995FF91EF91BF91AF919F918F917F918E
:1014B0006F915F914F913F912F910F900BBE0F90C5
:1014C0000FBE0F901F9018951F920F920FB60F929C
:1014D00011240BB60F922F933F934F935F936F930B
:1014E0007F938F939F93AF93BF93EF93FF93E0917D
:1014F0000D02F0910E021995FF91EF91BF91AF91FE
:101500009F918F917F916F915F914F913F912F911B
:101510000F900BBE0F900FBE0F901F9018951F924B
:101520000F920FB60F9211240BB60F922F933F9389
:101530004F935F936F937F938F939F93AF93BF93DB
:10154000EF93FF93E0910302F09104021995FF914C
:10155000EF91BF91AF919F918F917F916F915F912B
:101560004F913F912F910F900BBE0F900FBE0F9098
:101570001F9018951F920F920FB60F9211240BB661
:101580000F922F933F934F935F936F937F938F931C
:101590009F93AF93BF93EF93FF93E0910102F0917C
:1015A00002021995FF91EF91BF91AF919F918F9199
:1015B0007F916F915F914F913F912F910F900BBE53
:1015C0000F900FBE0F901F9018951F920F920FB69D
:1015D0000F9211240BB60F922F933F934F935F936B
:1015E0006F937F938F939F93AF93BF93EF93FF93EB
:1015F000E0910B02F0910C021995FF91EF91BF91D0
:10160000AF919F918F917F916F915F914F913F919A
:101610002F910F900BBE0F900FBE0F901F9018953B
:101620001F920F920FB60F9211240BB60F922F93A9
:101630003F934F935F936F937F938F939F93AF935A
:10164000BF93EF93FF93E0910902F0910A0219957D
:10165000FF91EF91BF91AF919F918F917F916F918A
:101660005F914F913F912F910F900BBE0F900FBE46
:101670000F901F9018951F920F920FB60F92112482
:101680000BB60F922F933F934F935F936F937F937C
:101690008F939F93AF93BF93EF93FF93E0910702D4
:1016A000F09108021995FF91EF91BF91AF919F9131
:1016B0008F917F916F915F914F913F912F910F90FB
:1016C0000BBE0F900FBE0F901F9018951F920F9298
:1016D0000FB60F9211240BB60F922F933F934F9397
:1016E0005F936F937F938F939F93AF93BF93EF938A
:1016F000FF93E0910502F09106021995FF91EF9199
:10170000BF91AF919F918F917F916F915F914F9119
:101710003F912F910F900BBE0F900FBE0F901F9017
:1017200018951F920F920FB60F9211240BB60F92BD
:101730002F933F934F935F936F937F938F939F93D9
:10174000AF93BF93EF93FF938091B900887F80366A
:1017500009F49CC068F5883209F45BC090F48031CC
:1017600009F454C038F4882309F4F6C0883009F429
:101770004DC0F6C0883109F44CC0803209F45DC018
:10178000EFC0803409F468C048F4803309F455C0D0
:10179000883309F0E5C08093AC02D8C0803509F4E5
:1017A0004FC0883509F45DC0883409F0D9C0D6C06F
:1017B000883909F4C7C0A8F4883709F467C038F439
:1017C000883609F463C0803709F460C0C9C088381E
:1017D00009F4B8C0803909F45FC0803809F0C0C08E
:1017E0005BC0803B09F486C038F4803A09F466C0D7
:1017F000883A09F47FC0B4C0803C09F4A7C0883C93
:1018000009F4A4C0883B09F48AC0AAC08091CF0221
:1018100010C09091CE028091CD02981770F5E091A2
:10182000CE0281E08E0F8093CE02F0E0E355FD4FB3
:1018300080818093BB0085EC86C08093AC028EC013
:10184000E091CE0281E08E0F8093CE028091BB00AA
:10185000F0E0E355FD4F80839091CE028091CD0260
:101860006EC0E091CE0281E08E0F8093CE02809117
:10187000BB00F0E0E355FD4F80838091E31C8111B4
:101880006DC081E08093E21C84EA61C083E08093B4
:10189000E41C1092AB02CFCF8091AB02803208F0F3
:1018A00051C0E091AB0281E08E0F8093AB0280913A
:1018B000BB00F0E0E557FD4F8083BDCF85EC809302
:1018C000BC001092E41C8091AB02803230F4E091B5
:1018D000AB02F0E0E557FD4F10826091AB0270E083
:1018E000E091E91CF091EA1C8BE892E019951092C6
:1018F000AB0236C084E08093E41C10928A021092FE
:101900008902E091EB1CF091EC1C19958091890201
:10191000811105C081E08093890210926902E091F3
:101920008A0281E08E0F80938A02F0E0E759FD4F32
:1019300080818093BB0090918A02809189029817E0
:1019400008F479CF85E88093BC000AC085EC8093C9
:10195000BC001092E41C04C01092AC020E94E4018E
:10196000FF91EF91BF91AF919F918F917F916F9177
:101970005F914F913F912F910F900BBE0F900FBE33
:101980000F901F901895ECEBF0E080818A7B8083AC
:1019900060E084E10E94C40360E085E10C94C4032C
:1019A000F2DF87E29EE10E94B2011816190684F563
:1019B00087E29EE10E949001209147023091480207
:1019C00040914502509146022F5F3F4F2427352713
:1019D0003770232B89F0E0914702F0914802E352DF
:1019E000FC4F808380914702909148020196977046
:1019F000909348028093470287E29EE10E94B201E1
:101A0000892B79F66AE070E080E090E0AEDCC9CF27
:101A10002091470230914802809145029091460200
:101A20002817390748F08091470290914802209189
:101A300045023091460209C08091470290914802C8
:101A40002091450230914602985F821B930B909340
:101A5000EF028093F00281E08093FB0261E080E37B
:101A60000E94C40384E1D2C18EDF8DEE9CE10E940E
:101A7000B2011816190684F58DEE9CE10E949001C2
:101A80002091430230914402409141025091420220
:101A90002F5F3F4F242735273770232B89F0E091A4
:101AA0004302F0914402E352F04F8083809143025D
:101AB0009091440201969770909344028093430260
:101AC0008DEE9CE10E94B201892B79F66AE070E00C
:101AD00080E090E04ADCC9CF20914302309144027B
:101AE00080914102909142022817390748F0809175
:101AF000430290914402209141023091420209C078
:101B0000809143029091440220914102309142021F
:101B1000985F821B930B9093DF028093E00281E039
:101B20008093EB0261E080E30E94C40384E16EC114
:101B300080E090E0892B41F080E090E0892B21F05B
:101B40000E94000081110EC055D081110EC080E0AE
:101B500090E0892B19F044D0811109C037D0811150
:101B600009C008950E940000EFCF1ADFF0CF0E9455
:101B70000000F4CF79CFCF92DF92EF92FF920F93D4
:101B80001F93CF93DF936C017A018B01C0E0D0E00B
:101B9000CE15DF0589F0D8016D918D01D601ED914B
:101BA000FC910190F081E02DC6011995892B11F46B
:101BB0007E0102C02196ECCFC701DF91CF911F912A
:101BC0000F91FF90EF90DF90CF9008958DEE9CE104
:101BD0000E94B20121E0892B09F420E0822F0895B0
:101BE0008AE89DE10E94B20121E0892B09F420E0FE
:101BF000822F089587E29EE10E94B20121E0892BA5
:101C000009F420E0822F0895EED41F920F920FB6B0
:101C10000F9211240BB60F922F933F934F935F9324
:101C20006F937F938F939F93AF93BF93EF93FF93A4
:101C30008DEE9CE10E943C03FF91EF91BF91AF912B
:101C40009F918F917F916F915F914F913F912F91D4
:101C50000F900BBE0F900FBE0F901F9018951F9204
:101C60000F920FB60F9211240BB60F922F933F9342
:101C70004F935F936F937F938F939F93AF93BF9394
:101C8000EF93FF938DEE9CE10E949C02FF91EF91F8
:101C9000BF91AF919F918F917F916F915F914F9184
:101CA0003F912F910F900BBE0F900FBE0F901F9082
:101CB00018951F920F920FB60F9211240BB60F9228
:101CC0002F933F934F935F936F937F938F939F9344
:101CD000AF93BF93EF93FF938AE89DE10E943C038B
:101CE000FF91EF91BF91AF919F918F917F916F91F4
:101CF0005F914F913F912F910F900BBE0F900FBEB0
:101D00000F901F9018951F920F920FB60F921124EB
:101D10000BB60F922F933F934F935F936F937F93E5
:101D20008F939F93AF93BF93EF93FF938AE89DE1C7
:101D30000E949C02FF91EF91BF91AF919F918F9173
:101D40007F916F915F914F913F912F910F900BBEBB
:101D50000F900FBE0F901F9018951F920F920FB605
:101D60000F9211240BB60F922F933F934F935F93D3
:101D70006F937F938F939F93AF93BF93EF93FF9353
:101D800087E29EE10E943C03FF91EF91BF91AF91EA
:101D90009F918F917F916F915F914F913F912F9183
:101DA0000F900BBE0F900FBE0F901F9018951F92B3
:101DB0000F920FB60F9211240BB60F922F933F93F1
:101DC0004F935F936F937F938F939F93AF93BF9343
:101DD000EF93FF9387E29EE10E949C02FF91EF91B7
:101DE000BF91AF919F918F917F916F915F914F9133
:101DF0003F912F910F900BBE0F900FBE0F901F9031
:101E00001895682F84EC9EE10C948C02880F8093C7
:101E1000BA0086E192E09093EC1C8093EB1C82E286
:101E200092E09093EA1C8093E91C1092E81C1092B7
:101E3000E71C1092E61C1092E51C1092E41C81E055
:101E40008093E31C1092E21C61E084E10E94C403D1
:101E500061E085E10E94C403E9EBF0E080818E7FC0
:101E6000808380818D7F808388E48093B80085E4BF
:101E70008093BC000895CF93DF93CDB7DEB727974B
:101E80000FB6F894DEBF0FBECDBF789484B58260E4
:101E900084BD84B5816084BD85B5826085BD85B50E
:101EA000816085BD80916E00816080936E0010928C
:101EB0008100809181008260809381008091810007
:101EC0008160809381008091800081608093800098
:101ED0008091B10084608093B1008091B0008160F6
:101EE0008093B000809191008260809391008091F6
:101EF0009100816080939100809190008160809337
:101F000090008091A10082608093A1008091A10047
:101F100081608093A1008091A00081608093A000E7
:101F20008091210182608093210180912101816053
:101F30008093210180912001816080932001809114
:101F40007A00846080937A0080917A008260809326
:101F50007A0080917A00816080937A0080917A0083
:101F6000806880937A001092C10060E070E084E0A5
:101F70000E94430660E070E085E00E94430660E056
:101F800070E08EE20E94430660E070E08DE00E9407
:101F9000430660E070E08CE00E94430660E070E081
:101FA0008BE00E94430660E070E088E00E944306F8
:101FB00060E070E087E00E94430660E070E086E049
:101FC0000E94430620E034E0EDEDF7E1DF01A901D6
:101FD0001D9241505040E1F780E098E0EDEDFFE0C8
:101FE000DF01AC011D9241505040E1F7EDEDFBE007
:101FF000DF01A9011D9241505040E1F7EDEDF3E002
:10200000DF019C011D9221503040E1F780E8E1E6BC
:10201000FCE1DF01282F1D922A95E9F7E1EEFBE1B3
:10202000DF01282F1D922A95E9F720E031E0EDED40
:10203000F2E0DF01A9011D9241505040E1F79AED15
:102040009093DC031092E3021092E40295E29093E5
:10205000E5028093E6021092F3021092F40290934C
:10206000F5028093F60296E09093E7029093F702D0
:102070001092E8021092F8021092E9021092F9020E
:102080001092EA021092FA028093FE0284E1BEDE10
:102090008AE097E09093DA028093D9028DE494E08D
:1020A0009093DC028093DB0261E086E10E940706E8
:1020B00061E086E10E94070660E082E00E94070678
:1020C00087E494E0909302028093010280916A0079
:1020D000836080936A00EC9A60E083E00E940706C8
:1020E00081E494E0909304028093030280916A005B
:1020F0008C6080936A00ED9A61E080E30E9407069D
:1021000060E080E30E94C40326E040E855E260E01E
:1021100070E08AE89DE10E94D7026AE070E080E00A
:1021200090E023D904EA12E0F2E0083B1F0749F0EF
:10213000F80164918AE89DE10E945D030F5F1F4FE3
:10214000F3CF6AE070E080E090E00FD98AE89DE18B
:102150000E94B5026AE070E080E090E006D926E0D7
:1021600040E052EC61E070E08AE89DE10E94D70215
:102170006AE070E080E090E0F8D800E712E0F2E07A
:10218000033A1F0749F0F80164918AE89DE10E9433
:102190005D030F5F1F4FF3CF6AE070E080E090E0D7
:1021A000E4D80DE512E0F2E00F361F0749F0F80120
:1021B00064918AE89DE10E945D030F5F1F4FF3CF9A
:1021C00060E870E084E00E94430660E870E08DE023
:1021D0000E94430660E870E088E00E9443066AEFD0
:1021E00070E080E090E0C1D860E070E084E00E94A0
:1021F000430660E070E08DE00E94430660E070E01E
:1022000088E00E94430660E870E085E00E94430693
:1022100060E870E08CE00E94430660E870E087E0D0
:102220000E9443066AEF70E080E090E09ED860E094
:1022300070E085E00E94430660E070E08CE00E9460
:10224000430660E070E087E00E94430660E870E0CB
:102250008EE20E94430660E870E08BE00E94430635
:1022600060E870E086E00E9443066AEF70E080E07C
:1022700090E07BD860E070E08EE20E94430660E070
:1022800070E08BE00E94430660E070E086E00E9410
:10229000430691E6A92E9CE1B92E20E8522E31EE9C
:1022A000832E3BE1932E46E0742E9E012F5F3F4F1D
:1022B00069018091E11C882309F4BDC064DBD5016C
:1022C000E52D1D92EA95E9F7D401E52D1D92EA95D9
:1022D000E9F7D601E72D1D92EA95E9F78AE89DE135
:1022E0000E94B201181619062CF48AE89DE10E949A
:1022F0009001F4CF8AE89DE10E94B20118161906F8
:1023000034F06AE070E080E090E02FD8F3CF612CE9
:10231000E12C00E010E08AE89DE10E94B20118166D
:1023200019060CF07CC08AE89DE10E949001F82E0D
:10233000F4E28F1731F02DE0821719F03AE08313A1
:1023400009C06E28D601E72D1D92EA95E9F7E12C28
:1023500000E010E0C8010197059720F4F601E00FB6
:10236000F11F3BC00630110529F51F8268E172E0BC
:10237000C6013DD1892B59F460FC33C0B60181E61A
:102380009CE13ED1F092671CEE24E39410C061E121
:1023900072E0C6012CD1892B21F561FC22C0B60167
:1023A00081EE9BE12DD1F092E71B82E0E82E07E061
:1023B00010E027C007301105D8F00038110508F5E6
:1023C000F1E0EF1639F022E0E2120BC0F801EF5114
:1023D000F44E03C0F801EF59F34EF0820F5F1F4F28
:1023E00010C0D601E72D1D92EA95E9F7E12C07C050
:1023F000F4E2FF1204C0F98201E010E002C000E044
:1024000010E08AE89DE10E94B201892B09F083CF98
:102410006AE070E080E090E00E94B5097CCF109205
:10242000E01B1092DF1B1092DE1B1092DD1B84E17B
:10243000EDDC1092E11C7CDB3CCFEDEEFCE1138285
:10244000128288EE93E0A0E0B0E084839583A683B7
:10245000B78323E232E03183208345E351E055879F
:10246000448744E351E05787468740E351E0518B6E
:10247000408B41E351E0538B428B42E351E0558B5B
:10248000448B46E351E0578B468B118E128E138E90
:10249000148EEAE8FDE11382128284839583A68379
:1024A000B7833183208345ED50E05587448744ED61
:1024B00050E05787468740ED50E0518B408B41ED0F
:1024C00050E0538B428B42ED50E0558B448B46EDF0
:1024D00050E0578B468B118E128E138E148EE7E2CE
:1024E000FEE11382128284839583A683B7833183AE
:1024F00020832DEC30E0358724872CEC30E03787C3
:10250000268728EC30E0318B208B29EC30E0338BB0
:10251000228B2AEC30E0358B248B2EEC30E0378B8D
:10252000268B118E128E138E148EE4ECFEE1138234
:10253000128284839583A683B78383E392E0918399
:102540008083089597FB072E16F4009406D077FD3C
:1025500008D035D007FC05D03EF4909581959F4F6B
:102560000895709561957F4F0895A1E21A2EAA1BD8
:10257000BB1BFD010DC0AA1FBB1FEE1FFF1FA21733
:10258000B307E407F50720F0A21BB30BE40BF50B30
:10259000661F771F881F991F1A9469F760957095B9
:1025A000809590959B01AC01BD01CF010895EE0F80
:1025B000FF1F881F8BBF0790F691E02D1994AA1B6F
:1025C000BB1B51E107C0AA1FBB1FA617B70710F01E
:1025D000A61BB70B881F991F5A95A9F78095909550
:1025E000BC01CD01089581E090E0F89410C0FB019A
:1025F000DC018D91019080190110D9F3990B089598
:10260000FB01DC0101900D920020E1F70895F894A0
:02261000FFCFFA
:1026120002E301E301E301E301E301E301E301E397
:1026220001244750524D4300244750474741000080
:102632000000005D03BB0DB2019001A401A30300E1
:102642000000008C02780270025C024D024C020013
:00000001FF
